:020000040800F2
:1000000000500020B5150008C5140008CB140008E6
:10001000D1140008D7140008DD1400080000000007
:10002000000000000000000000000000E3140008D1
:10003000EF14000800000000FB140008071500087A
:10004000FD150008FD150008FD150008FD15000848
:10005000FD150008FD150008FD150008FD15000838
:10006000FD150008FD150008FD150008FD15000828
:10007000FD150008FD150008FD150008FD15000818
:10008000FD150008FD150008FD150008FD15000808
:10009000FD150008FD150008FD150008FD150008F8
:1000A000FD15000815150008FD150008FD150008D0
:1000B000FD150008FD150008FD150008FD150008D8
:1000C000FD150008FD150008FD150008FD150008C8
:1000D000FD15000829150008FD150008FD1500088C
:1000E000FD150008FD150008FD15000800000000C2
:1000F0000000000000000000000000000000000000
:0C01000000000000000000005FF808F1A3
:10010C0010B5054C237833B9044B13B10448AFF345
:10011C0000800123237010BD70000020000000003F
:10012C00B46E000808B5034B1BB103490348AFF389
:10013C00008008BD0000000074000020B46E0008B0
:10014C00034613F8012B002AFBD1181A013870470B
:10015C0080F0004002E000BF81F0004142001FBF70
:10016C005FEA410392EA030F7FEA226C7FEA236C79
:10017C006AD04FEA1262D2EB1363C1BFD21841406E
:10018C0048404140B8BF5B42192B88BF704710F004
:10019C00004F40F4000020F07F4018BF404211F0A7
:1001AC00004F41F4000121F07F4118BF494292EA0F
:1001BC00030F3FD0A2F1010241FA03FC10EB0C003B
:1001CC00C3F1200301FA03F100F0004302D54942C8
:1001DC0060EB4000B0F5000F13D3B0F1807F06D375
:1001EC0040084FEA310102F10102FE2A51D2B1F16D
:1001FC00004F40EBC25008BF20F0010040EA030062
:10020C007047490040EB0000013A28BFB0F5000FE1
:10021C00EDD2B0FA80FCACF1080CB2EB0C0200FA97
:10022C000CF0AABF00EBC25052421843BCBFD040E6
:10023C001843704792F0000F81F4000106BF80F460
:10024C0000000132013BB5E74FEA41037FEA226C23
:10025C0018BF7FEA236C21D092EA030F04D092F0EE
:10026C00000F08BF0846704790EA010F1CBF002022
:10027C00704712F07F4F04D1400028BF40F000407F
:10028C00704712F100723CBF00F50000704700F09F
:10029C00004343F0FE4040F4000070477FEA2262C6
:1002AC0016BF08467FEA23630146420206BF5FEA97
:1002BC00412390EA010F40F4800070474FF0000397
:1002CC0004E000BF10F0004348BF40425FEA000C5E
:1002DC0008BF704743F0964301464FF000001CE006
:1002EC0050EA010208BF70474FF000030AE000BF5C
:1002FC0050EA010208BF704711F0004302D540429A
:10030C0061EB41015FEA010C02BF8446014600200B
:10031C0043F0B64308BFA3F18053A3F50003BCFA26
:10032C008CF2083AA3EBC25310DB01FA02FC6344D3
:10033C0000FA02FCC2F12002BCF1004F20FA02F2DA
:10034C0043EB020008BF20F00100704702F12002CD
:10035C0001FA02FCC2F1200250EA4C0021FA02F22E
:10036C0043EB020008BF20EADC7070474FF0FF0C33
:10037C001CEAD0521EBF1CEAD15392EA0C0F93EA2E
:10038C000C0F6FD01A4480EA010C400218BF5FEAD0
:10039C0041211ED04FF0006343EA501043EA511143
:1003AC00A0FB01310CF00040B1F5000F3EBF49003D
:1003BC0041EAD3715B0040EA010062F17F02FD2A41
:1003CC001DD8B3F1004F40EBC25008BF20F0010024
:1003DC00704790F0000F0CF0004C08BF49024CEA3B
:1003EC00502040EA51207F3AC2BFD2F1FF0340EACD
:1003FC00C250704740F400004FF00003013A5DDC3E
:10040C0012F1190FDCBF00F000407047C2F100027E
:10041C00410021FA02F1C2F1200200FA02FC5FEA6B
:10042C00310040F1000053EA4C0308BF20EADC70B5
:10043C00704792F0000F00F0004C02BF400010F427
:10044C00000F013AF9D040EA0C0093F0000F01F0D4
:10045C00004C02BF490011F4000F013BF9D041EAF6
:10046C000C018FE70CEAD15392EA0C0F18BF93EAF8
:10047C000C0F0AD030F0004C18BF31F0004CD8D122
:10048C0080EA010000F00040704790F0000F17BFA9
:10049C0090F0004F084691F0000F91F0004F14D0EF
:1004AC0092EA0C0F01D142020FD193EA0C0F03D147
:1004BC004B0218BF084608D180EA010000F000404A
:1004CC0040F0FE4040F40000704740F0FE4040F425
:1004DC00400070474FF0FF0C1CEAD0521EBF1CEAC4
:1004EC00D15392EA0C0F93EA0C0F69D0A2EB0302E2
:1004FC0080EA010C49024FEA402037D04FF080537C
:10050C0043EA111143EA10130CF000408B4238BF40
:10051C005B0042F17D024FF4000C8B4224BF5B1A4E
:10052C0040EA0C00B3EB510F24BFA3EB510340EA9C
:10053C005C00B3EB910F24BFA3EB910340EA9C004A
:10054C00B3EBD10F24BFA3EBD10340EADC001B01BA
:10055C0018BF5FEA1C1CE0D1FD2A3FF650AF8B425E
:10056C0040EBC25008BF20F0010070470CF0004C6B
:10057C004CEA50207F32C2BFD2F1FF0340EAC25096
:10058C00704740F400004FF00003013A37E792F057
:10059C00000F00F0004C02BF400010F4000F013AB5
:1005AC00F9D040EA0C0093F0000F01F0004C02BFB0
:1005BC00490011F4000F013BF9D041EA0C0195E719
:1005CC000CEAD15392EA0C0F08D142027FF47DAFB2
:1005DC0093EA0C0F7FF470AF084676E793EA0C0FA2
:1005EC0004D14B023FF44CAF08466EE730F0004CA0
:1005FC0018BF31F0004CCAD130F000427FF45CAF30
:10060C0031F000437FF43CAF5FE700BF42000ED2F5
:10061C00B2F1FE4F0BD34FF09E03B3EB126209D431
:10062C004FEA002343F0004323FA02F070474FF0E7
:10063C000000704712F1610F01D1420202D14FF05C
:10064C00FF3070474FF00000704700BF80B584B09A
:10065C0002AF0B4A3B1D1268114619800233120C73
:10066C001A703A1D6423009303237021054802F08D
:10067C003FF9502001F020F800BF0837BD4680BD7F
:10068C00CC6E00082001002080B588B002AF7860E5
:10069C000023BB600023BB81FFF7D8FF07F10802E2
:1006AC0064230093062370212E4802F01FFA3B7A34
:1006BC005BB2002B50DB7B7A1A03BB7A1B01134312
:1006CC00FA7A1209D2B213437B617869FFF7F6FD0F
:1006DC00034625491846FFF749FE03464FF0934160
:1006EC001846FFF7F7FE03461F491846FFF73EFE74
:1006FC0003461846FFF78AFF03469AB27B681A80B6
:10070C00FB7A1B0403F470223B7B1B0213437A7BA2
:10071C0013433B613869FFF7D1FD03461349184673
:10072C00FFF724FE03464FF093411846FFF7D2FE25
:10073C0003460F491846FFF70FFD03460A491846B2
:10074C00FFF714FE03461846FFF760FF03469AB204
:10075C007B685A80012300E0012318461837BD46F8
:10076C0080BD00BF200100200000C84200004843AB
:10077C000000484280B584B000AF7860786801F022
:10078C0097F80A21786801F06DF90346002B01D027
:10079C00002308E0786801F06BFA0346FB81786867
:1007AC0001F034F9FB8918461037BD4680BD0000B6
:1007BC0080B588B000AFF860B9607A600023FB6147
:1007CC000023FB760DE02748FFF7D4FF03461A46BB
:1007DC00FB691344FB61642000F06EFFFB7E013368
:1007EC00FB76FB7E092BEED9FB691F4AA2FB032388
:1007FC00DB083B61BA68FB689A420ED2FA683B6927
:10080C00D31A1A4642F2107303FB02F3F968BA6862
:10081C008A1A93FBF2F37B610DE03A69FB68D31AF9
:10082C001A4642F2107303FB02F3B968FA688A1A8B
:10083C0093FBF2F37B617B69002B01DA00237B6174
:10084C007B6942F21072934202DD42F210737B61BB
:10085C007B699AB27B689A807B699BB21846203779
:10086C00BD4680BD7C010020CDCCCCCC0FB480B576
:10087C00A2B000AF07F194033B60381D3B68D7F87A
:10088C009020802105F052FAC7F88400D7F8843004
:10089C00002B0FDDD7F88430802B02D98023C7F8CA
:1008AC008430D7F884309AB2391D4FF4FA73054866
:1008BC0004F078FB00BF8837BD46BDE8804004B02B
:1008CC00704700BFAC01002080B584B000AF7860E9
:1008DC0041F63F73FB607B68013BBB600C4803F047
:1008EC0093FF0B4B1B68FA689A62094B1B68BA683A
:1008FC00DA62074ABB68D360054B1B6800225A6258
:10090C00034803F02FFF00BF1037BD4680BD00BF6A
:10091C00F401002080B582B000AF78607B681B6862
:10092C00194A93422CD1194B1B887E2B20D8174B7C
:10093C001B885A1C91B2154A11801A46144B19780F
:10094C00144B9954124B1B782E2B14D10F4B1B8824
:10095C001A46104B002199540E4800F01FF80B4B0F
:10096C0000221A80802200210A4805F05FF902E07B
:10097C00064B00221A8001220549074804F09DFB12
:10098C0000BF0837BD4680BD003801401201002071
:10099C001001002090000020AC01002080B584B034
:1009AC0000AF786007F10C031A460D49786805F022
:1009BC0065F90346012B0CD1FB681846FFF784FF41
:1009CC00FB68084A1360FB6819460748FFF74EFF9F
:1009DC0002E00648FFF74AFF00BF1037BD4680BD56
:1009EC00D06E000894020020E46E0008F86E000837
:1009FC0080B582B000AF78607B681B68074A934271
:100A0C0008D1074B1B6819460648FFF72FFF064B0A
:100A1C0001221A7000BF0837BD4680BD002C014072
:100A2C0094020020146F00088C00002080B500AFE9
:100A3C000248FFF729FE00BF80BD00BF74010020F3
:100A4C0080B500AF044A40F2DC5141F29410FFF73C
:100A5C00AFFE00BF80BD00BF7401002090B589B00F
:100A6C0000AF2F4B5B882F4AA2FB03235B099BB281
:100A7C001C462B4B5B882B4AA2FB031252096421A8
:100A8C0001FB02F29B1A9BB238462246264905F01E
:100A9C00D5F83B461A461421032000F093FB204B5B
:100AAC001B88204AA2FB03235B099BB21C461C4BF0
:100ABC001B881C4AA2FB03125209642101FB02F29F
:100ACC009B1A9BB238462246184905F0B7F83B46AC
:100ADC001A461421052000F075FB114B9B88114A16
:100AEC00A2FB03235B099BB21C460D4B9B880D4A52
:100AFC00A2FB03125209642101FB02F29B1A9BB266
:100B0C00384622460A4905F099F83B461A46142104
:100B1C00072000F057FB00BF2437BD4690BD00BF37
:100B2C00740100201F85EB51286F0008386F0008F6
:100B3C00486F0008F0B585B004AF244B5B88244A9D
:100B4C00A2FB03235B099BB21D46204B5B88204A0A
:100B5C00A2FB03125209642101FB02F29B1A9BB205
:100B6C001E461A4B1B881A4AA2FB03235B099BB235
:100B7C009C46164B1B88164AA2FB03125209642191
:100B8C0001FB02F29B1A9BB21846104B9B88104A31
:100B9C00A2FB03235B099BB21C460C4B9B880C4AA3
:100BAC00A2FB03125209642101FB02F29B1A9BB2B5
:100BBC000293019400906346324629460548FFF79C
:100BCC0055FE00BF0437BD46F0BD00BF74010020C8
:100BDC001F85EB515C6F000880B500AFFFF726FF57
:100BEC00FFF72EFFFFF73AFFFFF7A4FF00BF80BD12
:100BFC0080B500AF00F0FEFC00F022F800F08EF99A
:100C0C0000F0ACF800F00EF900F05EF900F0D4F84A
:100C1C0000F066F8084803F0A5FD00F007FA00F0B4
:100C2C0076FA064B1B78DBB2002BFAD0034B002272
:100C3C001A70FFF7D1FFF4E7F40100208C000020BC
:100C4C0080B594B000AF07F1280328220021184684
:100C5C0004F0ECFF07F1140300221A605A609A604A
:100C6C00DA601A613B1D00221A605A609A60DA60E1
:100C7C000223BB620123BB631023FB6300237B6451
:100C8C0007F12803184602F023FD0346002B01D080
:100C9C0000F082F90F237B610023BB610023FB6111
:100CAC0000233B6200237B6207F1140300211846EA
:100CBC0002F08EFF0346002B01D000F06DF90223E9
:100CCC007B600023FB603B1D184603F00FF90346C5
:100CDC00002B01D000F060F900BF5037BD4680BD3D
:100CEC0080B584B000AF3B1D00221A605A609A6038
:100CFC00184B194A1A60174B00229A60154B0022A8
:100D0C001A73144B00221A75124B4FF46022DA61DD
:100D1C00104B00225A600F4B01221A610D4800F053
:100D2C00EFFC0346002B01D000F036F902237B6068
:100D3C000123BB600023FB603B1D1946054800F0F6
:100D4C00A3FF0346002B01D000F026F900BF10379B
:100D5C00BD4680BD7C0100200024014080B500AF61
:100D6C00124B134A1A60114B124A5A600F4B002255
:100D7C009A600E4B0022DA600C4B4FF480421A61E1
:100D8C000A4B00225A61094B00229A61074B002240
:100D9C00DA61064B00221A62044801F065FC034636
:100DAC00002B01D000F0F8F800BF80BD200100201E
:100DBC0000540040A086010080B500AF174B184AC4
:100DCC001A60164B4FF482725A60144B00229A60D0
:100DDC00124B0022DA60114B00221A610F4B0022D9
:100DEC005A610E4B4FF400729A610C4B0022DA617F
:100DFC000A4B00221A62094B00225A62074B00224E
:100E0C009A62064B0A22DA62044803F0DBF90346C5
:100E1C00002B01D000F0C0F800BF80BD3C020020C8
:100E2C000030014080B586B000AF07F10803002206
:100E3C001A605A609A60DA603B4600221A605A6067
:100E4C001F4B204A1A601E4B41F63F725A601C4BD6
:100E5C0000229A601A4B41F28732DA60184B00225A
:100E6C001A61174B00225A61154B00229A611448E3
:100E7C0003F029FC0346002B01D000F08DF84FF451
:100E8C008053BB6007F1080319460D4803F0DAFDE7
:100E9C000346002B01D000F07FF800233B600023B9
:100EAC007B603B461946064803F0BCFF0346002B0B
:100EBC0001D000F071F800BF1837BD4680BD00BFEF
:100ECC00F4010020002C014080B500AF114B124AF8
:100EDC001A60104B4FF4E1325A600E4B00229A60AC
:100EEC000C4B0022DA600B4B00221A61094B0C22CE
:100EFC005A61084B00229A61064B0022DA610548C0
:100F0C0004F000F80346002B01D000F045F800BFB8
:100F1C0080BD00BFAC0100200038014080B586B018
:100F2C0000AF07F1080300221A605A609A60DA6079
:100F3C00174B9B69164A43F004039361144B9B694E
:100F4C0003F004037B607B68114B9B69104A43F0F0
:100F5C00080393610E4B9B6903F008033B603B68ED
:100F6C00002258210B4801F067FB5823BB6001237A
:100F7C00FB6000233B6102237B6107F108031946E8
:100F8C00044801F0D5F900BF1837BD4680BD00BF3D
:100F9C00001002400008014080B400AF72B600BFE0
:100FAC00FEE7000080B582B000AF0346FB71002263
:100FBC0040210B4801F040FB00221021084801F0B1
:100FCC003BFBF91D64230122064803F07FF9012243
:100FDC001021034801F030FB00BF0837BD4680BD2F
:100FEC00000801403C02002080B582B000AF0346EF
:100FFC00FB71012240210B4801F01EFB0022102145
:10100C00084801F019FBF91D64230122064803F07E
:10101C005DF901221021034801F00EFB00BF0837D7
:10102C00BD4680BD000801403C02002080B500AFE9
:10103C0000221021244801F0FFFA01220821224845
:10104C0001F0FAFAA820FFF7ADFF3F20FFF7AAFF47
:10105C00D320FFF7A7FF0020FFF7A4FF4020FFF7E6
:10106C00A1FFA120FFF79EFFC820FFF79BFFDA200E
:10107C00FFF798FF1220FFF795FF8120FFF792FFF3
:10108C003F20FFF78FFFA420FFF78CFFA620FFF770
:10109C0089FFD520FFF786FF8020FFF783FF8D2087
:1010AC00FFF780FF1420FFF77DFFAF20FFF77AFFDB
:1010BC002020FFF777FF1020FFF774FF4FF47A70B2
:1010CC0000F0FAFA00BF80BD0008014080B582B084
:1010DC0000AF03460A46FB711346BB71BB7903F0A4
:1010EC000F03DBB21846FFF75DFFBB791B09DBB2C0
:1010FC001033DBB21846FFF755FFFB79503BDBB2E0
:10110C001846FFF74FFF00BF0837BD4680BD80B5BE
:10111C0082B000AF00210020FFF7D8FF00237B60D6
:10112C0016E000233B600DE07B68DBB23A68D2B27C
:10113C0011461846FFF7CAFF0020FFF755FF3B6822
:10114C0001333B603B68812BEEDD7B6801337B60B8
:10115C007B68072BE5DD00BF00BF0837BD4680BDAF
:10116C0080B584B000AF78600023FB601DE00023E5
:10117C00BB6014E0FB687A6813441B78A3F120026F
:10118C000F4913465B0013445B00CA18BB68134439
:10119C001B781846FFF728FFBB680133BB60BB68A0
:1011AC00052BE7DDFB680133FB60FB687A681344B1
:1011BC001B78002BDBD100BF00BF1037BD4680BDB4
:1011CC00986F000880B582B000AF03463A60FB719F
:1011DC000B46BB71BA79FB7911461846FFF776FFBF
:1011EC003868FFF7BDFF00BF0837BD4680BD000063
:1011FC0080B485B000AF154B9B69144A43F00103D2
:10120C009361124B9B6903F00103BB60BB680F4BEE
:10121C00DB690E4A43F08053D3610C4BDB6903F05E
:10122C0080537B607B680A4B5B68FB60FB6823F038
:10123C00E063FB60FB6843F08063FB60044AFB687F
:10124C00536000BF1437BD4680BC7047001002408D
:10125C000000014080B588B000AF786007F1100342
:10126C0000221A605A609A60DA607B681B68144A24
:10127C00934221D1134B9B69124A43F4007393613F
:10128C00104B9B6903F40073FB60FB680D4B9B696F
:10129C000C4A43F0040393610A4B9B6903F004036B
:1012AC00BB60BB6804233B6103237B6107F1100324
:1012BC001946054801F03CF800BF2037BD4680BDFB
:1012CC0000240140001002400008014080B588B0A5
:1012DC0000AF786007F1100300221A605A609A6020
:1012EC00DA607B681B68154A934223D1144B9B69C7
:1012FC00134A43F008039361114B9B6903F00803F5
:10130C00FB60FB68C0233B6112237B610323FB6101
:10131C0007F1100319460B4801F00AF8084BDB697A
:10132C00074A43F40013D361054BDB6903F4001344
:10133C00BB60BB6800BF2037BD4680BD0054004079
:10134C0000100240000C014080B588B000AF7860FE
:10135C0007F1100300221A605A609A60DA607B6809
:10136C001B68154A934223D1144B9B69134A43F4CF
:10137C0080539361114B9B6903F48053FB60FB68B2
:10138C000E4B9B690D4A43F0040393610B4B9B6915
:10139C0003F00403BB60BB68A0233B6102237B61A9
:1013AC000323FB6107F110031946054800F0C0FF49
:1013BC0000BF2037BD4680BD003001400010024008
:1013CC000008014080B584B000AF78607B681B6872
:1013DC000D4A934213D10D4B9B690C4A43F40063A5
:1013EC0093610A4B9B6903F40063FB60FB6800226A
:1013FC000021192000F0B3FE192000F0CCFE00BF34
:10140C001037BD4680BD00BF002C014000100240CB
:10141C0080B588B000AF786007F1100300221A6025
:10142C005A609A60DA607B681B68204A934239D113
:10143C001F4B9B691E4A43F4804393611C4B9B6971
:10144C0003F48043FB60FB68194B9B69184A43F01B
:10145C0004039361164B9B6903F00403BB60BB68E8
:10146C004FF400733B6102237B610323FB6107F1A3
:10147C00100319460F4800F05BFF4FF480633B618B
:10148C0000237B610023BB6107F110031946094857
:10149C0000F04EFF00220021252000F060FE2520E8
:1014AC0000F079FE00BF2037BD4680BD00380140FA
:1014BC00001002400008014080B400AFFEE780B489
:1014CC0000AFFEE780B400AFFEE780B400AFFEE7EC
:1014DC0080B400AFFEE780B400AF00BFBD4680BC57
:1014EC00704780B400AF00BFBD4680BC704780B46D
:1014FC0000AF00BFBD4680BC704780B500AF00F0A8
:10150C00BFF800BF80BD000080B500AF024803F0FB
:10151C00A9F900BF80BD00BFF401002080B500AF69
:10152C00024803F0EFFD00BF80BD00BFAC010020FE
:10153C0080B586B000AF7860144A154BD31A7B6126
:10154C007B693B61134B1B68002B02D1114B124A78
:10155C001A60104B1A687B6813443A699A4207D296
:10156C0004F03AFB03460C221A604FF0FF3309E0FB
:10157C00084B1B68FB60074B1A687B681344054AD1
:10158C001360FB6818461837BD4680BD005000201C
:10159C000004000014010020B002002080B400AF51
:1015AC0000BFBD4680BC7047FFF7F8FF0B480C49E5
:1015BC000C4A002302E0D458C4500433C4188C42A3
:1015CC00F9D3094A094C002301E013600432A2420A
:1015DC00FBD304F007FBFFF70BFB70470000002068
:1015EC0070000020D073000870000020AC020020B6
:1015FC00FEE7000080B500AF084B1B68074A43F0BC
:10160C0010031360032000F09FFD0F2000F008F87A
:10161C00FFF7EEFD0023184680BD00BF00200240FE
:10162C0080B582B000AF7860124B1A68124B1B78F1
:10163C0019464FF47A73B3FBF1F3B2FBF3F318468C
:10164C0000F0B7FD0346002B01D001230EE07B68B0
:10165C000F2B0AD8002279684FF0FF3000F07FFD85
:10166C00064A7B681360002300E001231846083704
:10167C00BD4680BD000000200800002004000020B2
:10168C0080B400AF054B1B781A46054B1B681344FE
:10169C00034A136000BFBD4680BC704708000020A1
:1016AC009802002080B400AF024B1B681846BD4660
:1016BC0080BC70479802002080B584B000AF786081
:1016CC00FFF7F0FFB8607B68FB60FB68B3F1FF3F8E
:1016DC0005D00A4B1B781A46FB681344FB6000BF0D
:1016EC00FFF7E0FF0246BB68D31AFA689A42F7D8B4
:1016FC0000BF00BF1037BD4680BD00BF08000020F2
:10170C0080B586B000AF78600023FB7500233B6189
:10171C000023BB600023FB607B68002B01D10123FD
:10172C00BEE07B689B68002B7B689B6A002B09D111
:10173C007B680022DA627B68002283F824207868B8
:10174C00FFF788FD786800F0F1FB0346FB757B68BA
:10175C009B6A03F01003002B40F09980FB7D002B5B
:10176C0040F095807B689B6A23F4885323F0020336
:10177C0043F002027B689A627B685A687B68DB697B
:10178C001A437B681B7B5B001343BA681343BB6033
:10179C007B689B68B3F5807F03D07B689B68012BCB
:1017AC0002D14FF4807300E000233A6913433B618C
:1017BC007B681B7D012B19D17B681B7B002B09D10E
:1017CC007B689B69013B5A033B69134343F40063F9
:1017DC003B610BE07B689B6A43F020027B689A625A
:1017EC007B68DB6A43F001027B68DA627B681B680A
:1017FC005B6823F469417B681B683A690A435A6049
:10180C007B681B689A68284B13407A681268B96821
:10181C000B4393607B689B68B3F5807F03D07B6838
:10182C009B68012B04D17B681B69013B1B05FB608A
:10183C007B681B68DB6A23F470017B681B68FA68A1
:10184C000A43DA627B681B689A68184B1340BA68C3
:10185C009A420BD17B680022DA627B689B6A23F088
:10186C00030343F001027B689A6218E07B689B6A71
:10187C0023F0120343F010027B689A627B68DB6AE8
:10188C0043F001027B68DA620123FB7507E07B6899
:10189C009B6A43F010027B689A620123FB75FB7D07
:1018AC0018461837BD4680BDFDF7E1FFFE0E1FFF41
:1018BC0080B584B000AF78600023FB737B6893F82D
:1018CC002430012B01D1022398E07B68012283F89C
:1018DC002420786800F0D0FA0346FB73FB7B002BC6
:1018EC0040F087807B689B6A23F4407323F00103EC
:1018FC0043F480727B689A627B681B68414A93420E
:10190C0005D1414B5B6803F47023002B15D17B6828
:10191C009B6A23F480127B689A627B681B685B6805
:10192C0003F48063002B26D07B689B6A23F440531E
:10193C0043F480527B689A621DE07B689B6A43F497
:10194C0080127B689A627B681B682F4A934204D092
:10195C007B681B682B4A93420DD12B4B5B6803F4BD
:10196C008063002B07D07B689B6A23F4405343F4BD
:10197C0080527B689A627B689B6A03F48053002BCD
:10198C0006D07B68DB6A23F006027B68DA6202E031
:10199C007B680022DA627B68002283F824207B6853
:1019AC001B686FF002021A607B681B689B6803F46B
:1019BC006023B3F5602F13D17B681B68114A9342E7
:1019CC0005D1114B5B6803F47023002B08D17B68A5
:1019DC001B689A687B681B6842F4A0029A600CE052
:1019EC007B681B689A687B681B6842F480129A605B
:1019FC0003E07B68002283F82420FB7B1846103719
:101A0C00BD4680BD002801400024014080B584B053
:101A1C0000AF78600023FB737B6893F82430012BB4
:101A2C0001D102231AE07B68012283F82420786814
:101A3C0000F07CFA0346FB73FB7B002B09D17B681F
:101A4C009B6A23F4885323F0010343F001027B6863
:101A5C009A627B68002283F82420FB7B184610379F
:101A6C00BD4680BD90B587B000AF7860396000236B
:101A7C007B610023FB6000233B61FFF713FE786161
:101A8C007B681B689B6803F48073002B0BD07B680E
:101A9C009B6A43F020027B689A627B68002283F881
:101AAC0024200123D3E07B681B685B6803F48073FC
:101ABC00002B31D17B681B68DB6A03F47003002BAD
:101ACC002AD121E03B68B3F1FF3F1DD03B68002BCE
:101ADC0007D0FFF7E7FD02467B69D31A3A689A42B2
:101AEC0012D27B681B681B6803F00203002B0BD11E
:101AFC007B689B6A43F004027B689A627B680022D5
:101B0C0083F824200323A2E07B681B681B6803F086
:101B1C000203002BD6D070E04F4B1C68022002F061
:101B2C009BFA0346B4FBF3F27B681B6819694B4BB9
:101B3C000B40002B18D17B681B68D968484B0B40B5
:101B4C00002B11D17B681B681969464B0B40002B8D
:101B5C0008D17B681B68D968434B0B40002B01D123
:101B6C00142320E029231EE07B681B6819693D4B78
:101B7C000B40002B06D17B681B68D9683A4B0B4095
:101B8C00002B0DD07B681B681969384B0B40002B60
:101B9C0008D17B681B68D968344B0B40002B01D1F2
:101BAC00542300E0FC2302FB03F33B6121E03B6880
:101BBC00B3F1FF3F1AD03B68002B07D0FFF772FD43
:101BCC0002467B69D31A3A689A420FD2FB683A698B
:101BDC009A420BD97B689B6A43F004027B689A6239
:101BEC007B68002283F82420032330E0FB68013358
:101BFC00FB60FB683A699A42D9D87B681B686FF026
:101C0C0012021A607B689B6A43F400727B689A62CA
:101C1C007B681B689B6803F46023B3F5602F15D1B8
:101C2C007B681B7B002B11D17B689B6A23F4807231
:101C3C007B689A627B689B6A03F48053002B05D106
:101C4C007B689B6A43F001027B689A62002318460A
:101C5C001C37BD4690BD00BF0000002024499224D3
:101C6C00244992009224491292244900499224005A
:101C7C0080B483B000AF78607B681B68DB6C18465F
:101C8C000C37BD4680BC704780B485B000AF78601F
:101C9C0039600023FB730023BB607B6893F824300E
:101CAC00012B01D10223DCE07B68012283F8242084
:101CBC003B685B68062B1CD87B681B68596B3B68C0
:101CCC005A6813469B001344053B1F2202FA03F388
:101CDC00DB4319403B6818683B685A6813469B0005
:101CEC001344053B00FA03F27B681B680A435A63F2
:101CFC003CE03B685B680C2B1CD87B681B68196B41
:101D0C003B685A6813469B001344233B1F2202FA7C
:101D1C0003F3DB4319403B6818683B685A68134669
:101D2C009B001344233B00FA03F27B681B680A43B5
:101D3C001A631BE07B681B68D96A3B685A681346B8
:101D4C009B001344413B1F2202FA03F3DB4319406F
:101D5C003B6818683B685A6813469B001344413B28
:101D6C0000FA03F27B681B680A43DA623B681B6863
:101D7C00092B1CD97B681B68D9683B681A68134609
:101D8C005B0013441E3B072202FA03F3DB431940AA
:101D9C003B6898683B681A6813465B0013441E3B0B
:101DAC0000FA03F27B681B680A43DA6019E07B686F
:101DBC001B6819693B681A6813465B0013440722B9
:101DCC0002FA03F3DB4319403B6898683B681A68D6
:101DDC0013465B00134400FA03F27B681B680A434A
:101DEC001A613B681B68102B03D03B681B68112BD6
:101DFC0032D17B681B681D4A934225D17B681B68D6
:101E0C009B6803F40003002B26D17B681B689A683F
:101E1C007B681B6842F400029A603B681B68102BBD
:101E2C001AD1134B1B68134AA2FB03239A0C1346BB
:101E3C009B0013445B00BB6002E0BB68013BBB60D2
:101E4C00BB68002BF9D107E07B689B6A43F020024A
:101E5C007B689A620123FB737B68002283F8242041
:101E6C00FB7B18461437BD4680BC704700240140EC
:101E7C000000002083DE1B4380B584B000AF786087
:101E8C000023FB600023BB607B681B689B6803F02E
:101E9C000103012B40D07B681B689A687B681B6828
:101EAC0042F001029A601F4B1B681F4AA2FB0323DE
:101EBC009B0CBB6002E0BB68013BBB60BB68002BAA
:101ECC00F9D1FFF7EFFBF8601FE0FFF7EBFB0246E1
:101EDC00FB68D31A022B18D97B681B689B6803F02C
:101EEC000103012B11D07B689B6A43F010027B68C5
:101EFC009A627B68DB6A43F001027B68DA627B687A
:101F0C00002283F82420012307E07B681B689B6870
:101F1C0003F00103012BD8D1002318461037BD461E
:101F2C0080BD00BF0000002083DE1B4380B584B061
:101F3C0000AF78600023FB607B681B689B6803F034
:101F4C000103012B2ED17B681B689A687B681B6888
:101F5C0022F001029A60FFF7A5FBF8601BE0FFF787
:101F6C00A1FB0246FB68D31A022B14D97B681B68B1
:101F7C009B6803F00103012B0DD17B689B6A43F036
:101F8C0010027B689A627B68DB6A43F001027B6813
:101F9C00DA62012307E07B681B689B6803F001038E
:101FAC00012BDCD0002318461037BD4680BD000045
:101FBC0080B485B000AF78607B6803F00703FB60EA
:101FCC000C4BDB68BB60BA684FF6FF031340BB6079
:101FDC00FB681A02BB68134343F0BF6343F400333E
:101FEC00BB60044ABB68D36000BF1437BD4680BCDD
:101FFC00704700BF00ED00E080B400AF044BDB681D
:10200C001B0A03F007031846BD4680BC704700BF8F
:10201C0000ED00E080B483B000AF0346FB7197F98C
:10202C000730002B0BDBFB7903F01F02064997F9F5
:10203C0007305B09012000FA02F241F8232000BFAF
:10204C000C37BD4680BC704700E100E080B483B023
:10205C0000AF03463960FB7197F90730002B0ADBA0
:10206C003B68DAB20C4997F907301201D2B20B4433
:10207C0083F800230AE03B68DAB20849FB7903F0E5
:10208C000F03043B1201D2B20B441A7600BF0C377B
:10209C00BD4680BC704700BF00E100E000ED00E0F1
:1020AC0080B489B000AFF860B9607A60FB6803F067
:1020BC000703FB61FB69C3F10703042B28BF04234F
:1020CC00BB61FB690433062B02D9FB69033B00E0BF
:1020DC0000237B614FF0FF32BB6902FA03F3DA4352
:1020EC00BB681A407B699A404FF0FF317B6901FA5B
:1020FC0003F3D9437B680B40134318462437BD4682
:10210C0080BC704780B582B000AF78607B68013BC3
:10211C00B3F1807F01D301230FE00A4A7B68013BB6
:10212C0053600F214FF0FF30FFF790FF054B00225B
:10213C009A60044B07221A60002318460837BD46E4
:10214C0080BD00BF10E000E080B582B000AF7860C9
:10215C007868FFF72DFF00BF0837BD4680BD80B5FE
:10216C0086B000AF0346B9607A60FB7300237B61D5
:10217C00FFF742FF78617A68B9687869FFF790FFDA
:10218C00024697F90F3011461846FFF75FFF00BF64
:10219C001837BD4680BD80B582B000AF0346FB71D9
:1021AC0097F907301846FFF735FF00BF0837BD46D3
:1021BC0080BD80B582B000AF78607868FFF7A2FF71
:1021CC00034618460837BD4680BD80B485B000AFC5
:1021DC0078600023FB737B6893F82130DBB2022B11
:1021EC0008D07B6804229A637B68002283F8202045
:1021FC00012320E07B681B681A687B681B6822F04F
:10220C000E021A607B681B681A687B681B6822F0D8
:10221C0001021A607B681A6C7B68DB6B012101FA86
:10222C0002F25A607B68012283F821207B6800222D
:10223C0083F82020FB7B18461437BD4680BC7047C2
:10224C0080B584B000AF78600023FB737B6893F893
:10225C002130DBB2022B05D07B6804229A63012368
:10226C00FB7351E07B681B681A687B681B6822F063
:10227C000E021A607B681B681A687B681B6822F068
:10228C0001021A607B681B68224A934229D07B6842
:10229C001B68214A934222D07B681B681F4A9342D9
:1022AC001AD07B681B681E4A934212D07B681B684D
:1022BC001C4A93420AD07B681B681B4A934202D18A
:1022CC004FF480130EE04FF080730BE04FF480332B
:1022DC0008E04FF4805305E04FF4807302E01023C4
:1022EC0000E00123114A53607B68012283F821200E
:1022FC007B68002283F820207B685B6B002B03D06B
:10230C007B685B6B78689847FB7B18461037BD463B
:10231C0080BD00BF080002401C000240300002409B
:10232C0044000240580002406C0002400000024091
:10233C0080B48BB000AF7860396000237B620023DF
:10234C003B6269E101227B6A02FA03F3FB613B68A1
:10235C001B68FA691340BB61BA69FB699A4240F089
:10236C0058813B685B689A4A93425ED0984A934284
:10237C0075D8984A934258D0964A93426FD8964A49
:10238C00934252D0944A934269D8944A93424CD087
:10239C00924A934263D8924A934246D0904A9342CF
:1023AC005DD8122B2AD8122B59D801A252F823F03F
:1023BC003724000811240008232400086524000891
:1023CC006B2400086B2400086B2400086B240008A5
:1023DC006B2400086B2400086B2400086B24000895
:1023EC006B2400086B2400086B2400086B24000885
:1023FC006B240008192400082D240008794A934204
:10240C0013D02CE03B68DB683B6229E03B68DB685F
:10241C0004333B6224E03B68DB6808333B621FE01B
:10242C003B68DB680C333B621AE03B689B68002B13
:10243C0002D104233B6213E03B689B68012B05D15E
:10244C0008233B627B68FA691A6109E008233B6246
:10245C007B68FA695A6103E000233B6200E000BF2D
:10246C00BB69FF2B01D87B6801E07B6804337B617F
:10247C00BB69FF2B02D87B6A9B0002E07B6A083B9E
:10248C009B003B617B691A680F213B6901FA03F3DE
:10249C00DB431A40396A3B6901FA03F31A437B693F
:1024AC001A603B685B6803F08053002B00F0B1802E
:1024BC004D4B9B694C4A43F0010393614A4B9B691A
:1024CC0003F00103BB60BB68484A7B6A9B0802337C
:1024DC0052F82330FB607B6A03F003039B000F224E
:1024EC0002FA03F3DB43FA681340FB607B68404A53
:1024FC00934213D07B683F4A93420DD07B683E4A8F
:10250C00934207D07B683D4A934201D1032306E0F6
:10251C00042304E0022302E0012300E000237A6A92
:10252C0002F0030292009340FA681343FB602F49B8
:10253C007B6A9B080233FA6841F823203B685B688E
:10254C0003F48013002B06D02D4B9A682C49BB69E1
:10255C0013438B6006E02A4B9A68BB69DB4328491E
:10256C0013408B603B685B6803F40013002B06D0B0
:10257C00234BDA682249BB691343CB6006E0204B3E
:10258C00DA68BB69DB431E491340CB603B685B6870
:10259C0003F40033002B06D0194B5A681849BB6959
:1025AC0013434B6006E0164B5A68BB69DB43144976
:1025BC0013404B603B685B6803F48033002B21D0E5
:1025CC000F4B1A680E49BB6913430B6021E000BF27
:1025DC000000321000003110000022100000211009
:1025EC000000121000001110001002400000014009
:1025FC0000080140000C0140001001400014014093
:10260C00000401400B4B1A68BB69DB4309491340BA
:10261C000B607B6A01337B623B681A687B6A22FA27
:10262C0003F3002B7FF48EAE00BF00BF2C37BD46EA
:10263C0080BC70470004014080B483B000AF786068
:10264C000B467B8013467B707B78002B03D07A88FB
:10265C007B681A6103E07B881A047B681A6100BFEF
:10266C000C37BD4680BC704780B584B000AF786035
:10267C007B68002B01D101232BE17B6893F83D3063
:10268C00DBB2002B06D17B68002283F83C207868F3
:10269C00FEF71CFE7B68242283F83D207B681B68B8
:1026AC001A687B681B6822F001021A607B681B6841
:1026BC001A687B681B6842F400421A607B681B68CE
:1026CC001A687B681B6822F400421A6001F0C8FB90
:1026DC00F8607B685B68814A934207D8FB68804A44
:1026EC00934294BF01230023DBB206E0FB687D4AD2
:1026FC00934294BF01230023DBB2002B01D00123B2
:10270C00E7E0FB68784AA2FB03239B0CBB607B6869
:10271C001B685B6823F03F017B681B68BA680A433F
:10272C005A607B681B681B6A23F03F017B685B68FF
:10273C006A4A934202D8BB68013309E0BB684FF484
:10274C00967202FB03F3694AA2FB03239B09013334
:10275C007A6812680B4313627B681B68DB6923F48D
:10276C004F4222F0FF027B685B685C498B4219D8B0
:10277C00FB68591E7B685B685B00B1FBF3F3591C6B
:10278C0040F6FC730B40002B0AD0FB68591E7B688B
:10279C005B685B00B1FBF3F30133C3F30B0351E054
:1027AC0004234FE07B689B68002B11D1FB68581EFB
:1027BC007B6859680B465B000B44B0FBF3F30133A9
:1027CC00C3F30B03002B0CBF01230023DBB212E07D
:1027DC00FB68581E7B6859680B469B000B4499009C
:1027EC000B44B0FBF3F30133C3F30B03002B0CBF0F
:1027FC0001230023DBB2002B01D0012322E07B68F4
:10280C009B68002B0ED1FB68581E7B6859680B46E1
:10281C005B000B44B0FBF3F30133C3F30B0343F442
:10282C0000430FE0FB68581E7B6859680B469B0001
:10283C000B4499000B44B0FBF3F30133C3F30B03CC
:10284C0043F44043796809681343CB617B681B6888
:10285C001B6823F0C0017B68DA697B681B6A1A432A
:10286C007B681B680A431A607B681B689B6823F4AF
:10287C00034323F0FF037A6811697A68D268114325
:10288C007A6812680B4393607B681B68DB6823F0E3
:10289C00FF017B685A697B689B691A437B681B68DC
:1028AC000A43DA607B681B681A687B681B6842F015
:1028BC0001021A607B6800221A647B68202283F86C
:1028CC003D207B6800221A637B68002283F83E203F
:1028DC00002318461037BD4680BD00BFA0860100FE
:1028EC007F841E00FF083D0083DE1B43D34D621026
:1028FC0080B588B002AFF8607A601A460B467B81CF
:10290C0013463B81FEF7CEFE7861FB6893F83D30B1
:10291C00DBB2202B40F0E0807B690093192301226D
:10292C007049F86800F09EFC0346002B01D002238E
:10293C00D3E0FB6893F83C30012B01D10223CCE0AF
:10294C00FB68012283F83C20FB681B681B6803F0C2
:10295C000103012B07D0FB681B681A68FB681B6816
:10296C0042F001021A60FB681B681A68FB681B685E
:10297C0022F400621A60FB68212283F83D20FB6878
:10298C00102283F83E20FB6800221A64FB687A68E8
:10299C005A62FB683A895A85FB685B8D9AB2FB6870
:1029AC001A85FB68504ADA6279897B693A6AF86859
:1029BC0000F008FB0346002B01D001238DE000231F
:1029CC003B61FB681B685B693B61FB681B689B692F
:1029DC003B613B6966E07A69396AF86800F05CFD36
:1029EC000346002B0DD0FB681B6C042B07D1FB6836
:1029FC001B681A68FB681B6842F400721A6001239A
:102A0C006BE0FB685B6A1A78FB681B681A61FB68F1
:102A1C005B6A5A1CFB685A62FB685B8D9BB2013B7C
:102A2C009AB2FB685A85FB681B8D013B9AB2FB6816
:102A3C001A85FB681B685B6903F00403042B1BD12C
:102A4C00FB681B8D002B17D0FB685B6A1A78FB6840
:102A5C001B681A61FB685B6A5A1CFB685A62FB684C
:102A6C005B8D9BB2013B9AB2FB685A85FB681B8D50
:102A7C00013B9AB2FB681A857A69396AF86800F0EA
:102A8C0053FD0346002B0DD0FB681B6C042B07D1A8
:102A9C00FB681B681A68FB681B6842F400721A60BA
:102AAC0001231AE0FB681B8D002B94D1FB681B687B
:102ABC001A68FB681B6842F400721A60FB682022DB
:102ACC0083F83D20FB68002283F83E20FB6800223F
:102ADC0083F83C20002300E0022318461837BD463B
:102AEC0080BD00BF020010000000FFFF80B58CB05D
:102AFC0002AFF8607A601A460B467B8113463B8125
:102B0C0000233B62FEF7CEFD7862FB6893F83D3004
:102B1C00DBB2202B40F04B827B6A009319230122FD
:102B2C007F49F86800F09EFB0346002B01D002237E
:102B3C003EE2FB6893F83C30012B01D1022337E2D3
:102B4C00FB68012283F83C20FB681B681B6803F0C0
:102B5C000103012B07D0FB681B681A68FB681B6814
:102B6C0042F001021A60FB681B681A68FB681B685C
:102B7C0022F400621A60FB68222283F83D20FB6875
:102B8C00102283F83E20FB6800221A64FB687A68E6
:102B9C005A62FB683A895A85FB685B8D9AB2FB686E
:102BAC001A85FB685F4ADA6279897B6A3A6BF86846
:102BBC0000F08AFA0346002B01D00123F8E1FB68F0
:102BCC001B8D002B13D10023FB61FB681B685B6919
:102BDC00FB61FB681B689B69FB61FB69FB681B68FD
:102BEC001A68FB681B6842F400721A60CCE1FB683F
:102BFC001B8D012B1ED1FB681B681A68FB681B68B8
:102C0C0022F480621A6072B600BF0023BB61FB68BD
:102C1C001B685B69BB61FB681B689B69BB61BB691B
:102C2C00FB681B681A68FB681B6842F400721A6028
:102C3C0062B635E0FB681B8D022B1ED1FB681B684E
:102C4C001A68FB681B6842F400621A6072B600BF17
:102C5C0000237B61FB681B685B697B61FB681B68FD
:102C6C009B697B617B69FB681B681A68FB681B6846
:102C7C0022F480621A6062B612E0FB681B681A6864
:102C8C00FB681B6842F480621A6000233B61FB689E
:102C9C001B685B693B61FB681B689B693B613B691B
:102CAC0072E1FB681B8D032B00F21F81FB681B8DEF
:102CBC00012B23D17A6A396BF86800F07DFC03464E
:102CCC00002B01D0012373E1FB681B681A69FB68B8
:102CDC005B6AD2B21A70FB685B6A5A1CFB685A6258
:102CEC00FB681B8D013B9AB2FB681A85FB685B8DF8
:102CFC009BB2013B9AB2FB685A8545E1FB681B8D80
:102D0C00022B52D17B6A00933B6B00220649F86878
:102D1C0000F0A8FA0346002B08D0012348E100BFBD
:102D2C00020010000000FFFF0400010072B600BF9B
:102D3C00FB681B681A68FB681B6842F400721A6017
:102D4C00FB681B681A69FB685B6AD2B21A70FB6875
:102D5C005B6A5A1CFB685A62FB681B8D013B9AB27A
:102D6C00FB681A85FB685B8D9BB2013B9AB2FB68D2
:102D7C005A8562B600BFFB681B681A69FB685B6A00
:102D8C00D2B21A70FB685B6A5A1CFB685A62FB6809
:102D9C001B8D013B9AB2FB681A85FB685B8D9BB25D
:102DAC00013B9AB2FB685A85EEE07B6A00933B6B61
:102DBC0000228149F86800F055FA0346002B01D037
:102DCC000123F5E0FB681B681A68FB681B6822F49A
:102DDC0080621A6072B600BFFB681B681A69FB68D8
:102DEC005B6AD2B21A70FB685B6A5A1CFB685A6247
:102DFC00FB681B8D013B9AB2FB681A85FB685B8DE7
:102E0C009BB2013B9AB2FB685A856C4B1B68DB0882
:102E1C006B4AA2FB03231A0A13469B001344DA00E5
:102E2C00D31A3B623B6A013B3B623B6A002B18D1D5
:102E3C00FB6800221A63FB68202283F83D20FB68A4
:102E4C00002283F83E20FB681B6C43F02002FB68D9
:102E5C001A6462B600BFFB68002283F83C20012391
:102E6C00A6E0FB681B685B6903F00403042BD9D153
:102E7C00FB681B681A68FB681B6842F400721A60D6
:102E8C00FB681B681A69FB685B6AD2B21A70FB6834
:102E9C005B6A5A1CFB685A62FB681B8D013B9AB239
:102EAC00FB681A85FB685B8D9BB2013B9AB2FB6891
:102EBC005A8562B600BFFB681B681A69FB685B6ABF
:102ECC00D2B21A70FB685B6A5A1CFB685A62FB68C8
:102EDC001B8D013B9AB2FB681A85FB685B8D9BB21C
:102EEC00013B9AB2FB685A854EE07A6A396BF868F6
:102EFC0000F062FB0346002B01D0012358E0FB6875
:102F0C001B681A69FB685B6AD2B21A70FB685B6A51
:102F1C005A1CFB685A62FB681B8D013B9AB2FB681A
:102F2C001A85FB685B8D9BB2013B9AB2FB685A8594
:102F3C00FB681B685B6903F00403042B24D1FB685A
:102F4C001B8D032B07D1FB681B681A68FB681B6879
:102F5C0022F480621A60FB681B681A69FB685B6A62
:102F6C00D2B21A70FB685B6A5A1CFB685A62FB6827
:102F7C001B8D013B9AB2FB681A85FB685B8D9BB27B
:102F8C00013B9AB2FB685A85FB681B8D002B7FF4C2
:102F9C0088AEFB68202283F83D20FB68002283F872
:102FAC003E20FB68002283F83C20002300E0022333
:102FBC0018462837BD4680BD0400010000000020E3
:102FCC0089B5F81480B588B002AFF8607A603B60C0
:102FDC000B467B81FB68DB6A7B617B69082B06D027
:102FEC007B69012B03D07B6913F5803F08D1FB680B
:102FFC001B681A68FB681B6842F480721A600BE04D
:10300C00FB681B6B122B07D1FB681B681A68FB68EB
:10301C001B6842F480721A603B6800937B68002244
:10302C004FF00111F86800F01DF90346002B0DD08C
:10303C00FB681B681B6803F48073B3F5807F03D1B6
:10304C00FB684FF400721A64032335E0FB681B69BC
:10305C00B3F5804F08D17B89DBB21A46FB681B683D
:10306C0002F0FE021A611BE07B89DB11DBB203F07C
:10307C000603DBB263F00F03DAB2FB681B681A615C
:10308C003B687A680E49F86800F066F90346002B35
:10309C0001D0012310E07B89DAB2FB681B681A614E
:1030AC003B687A680749F86800F056F90346002B2C
:1030BC0001D0012300E0002318461837BD4680BD1F
:1030CC00080001000200010080B588B002AFF86072
:1030DC007A603B600B467B81FB68DB6A7B61FB683B
:1030EC001B681A68FB681B6842F480621A607B6973
:1030FC00082B06D07B69012B03D07B6913F5803F2D
:10310C0008D1FB681B681A68FB681B6842F4807264
:10311C001A600BE0FB681B6B112B07D1FB681B685B
:10312C001A68FB681B6842F480721A603B68009353
:10313C007B6800224FF00111F86800F093F8034609
:10314C00002B0DD0FB681B681B6803F48073B3F570
:10315C00807F03D1FB684FF400721A64032379E07B
:10316C00FB681B69B3F5804F08D17B89DBB243F058
:10317C000103DAB2FB681B681A615FE07B89DB1123
:10318C00DBB203F00603DBB263F00F03DAB2FB68C9
:10319C001B681A613B687A683049F86800F0DCF803
:1031AC000346002B01D0012354E07B89DAB2FB6883
:1031BC001B681A613B687A682949F86800F0CCF8FA
:1031CC000346002B01D0012344E000233B61FB6844
:1031DC001B685B693B61FB681B689B693B613B69D6
:1031EC00FB681B681A68FB681B6842F480721A60E3
:1031FC003B6800937B6800224FF00111F86800F0E7
:10320C0031F80346002B0DD0FB681B681B6803F4D8
:10321C008073B3F5807F03D1FB684FF400721A649E
:10322C00032317E07B89DB11DBB203F00603DBB26F
:10323C0063F00E03DAB2FB681B681A613B687A68AC
:10324C000749F86800F088F80346002B01D00123E9
:10325C0000E0002318461837BD4680BD0800010069
:10326C000200010080B584B000AFF860B9603B602B
:10327C001346FB7148E03B68B3F1FF3F44D0FEF7C7
:10328C0011FA0246BB69D31A3A689A4202D33B68D8
:10329C00002B39D1BB681B0CDBB2012B0DD1FB68A9
:1032AC001B685B69DA43BB6813409BB2002B0CBFF5
:1032BC0001230023DBB21A460CE0FB681B689B69F8
:1032CC00DA43BB6813409BB2002B0CBF01230023D5
:1032DC00DBB21A46FB799A4216D1FB6800221A63BC
:1032EC00FB68202283F83D20FB68002283F83E20F7
:1032FC00FB681B6C43F02002FB681A64FB6800221D
:10330C0083F83C20012323E0BB681B0CDBB2012BB0
:10331C000DD1FB681B685B69DA43BB6813409BB239
:10332C00002B0CBF01230023DBB21A460CE0FB6818
:10333C001B689B69DA43BB6813409BB2002B0CBF24
:10334C0001230023DBB21A46FB799A4293D0002367
:10335C0018461037BD4680BD80B584B000AFF8600C
:10336C00B9607A603B6071E0FB681B685B6903F4D1
:10337C008063B3F5806F23D1FB681B681A68FB6808
:10338C001B6842F400721A60FB681B686FF4806261
:10339C005A61FB6800221A63FB68202283F83D20E7
:1033AC00FB68002283F83E20FB681B6C43F0040290
:1033BC00FB681A64FB68002283F83C20012367E059
:1033CC007B68B3F1FF3F41D0FEF76CF902463B68D6
:1033DC00D31A7A689A4202D37B68002B36D1BB6829
:1033EC001B0CDBB2012B0CD1FB681B685B69DA434D
:1033FC00BB6813409BB2002B14BF01230023DBB22C
:10340C000BE0FB681B689B69DA43BB6813409BB2FB
:10341C00002B14BF01230023DBB2002B16D0FB685A
:10342C0000221A63FB68202283F83D20FB680022EF
:10343C0083F83E20FB681B6C43F02002FB681A6487
:10344C00FB68002283F83C20012321E0BB681B0CA5
:10345C00DBB2012B0CD1FB681B685B69DA43BB68E0
:10346C0013409BB2002B14BF01230023DBB20BE0F3
:10347C00FB681B689B69DA43BB6813409BB2002B4B
:10348C0014BF01230023DBB2002B7FF46DAF0023AC
:10349C0018461037BD4680BD80B584B000AFF860CB
:1034AC00B9607A6034E0F86800F0E3F80346002B6A
:1034BC0001D0012334E0BB68B3F1FF3F28D0FEF705
:1034CC00F1F802467B68D31ABA689A4202D3BB68F9
:1034DC00002B1DD1FB681B685B6903F08003802BFC
:1034EC0016D0FB6800221A63FB68202283F83D206B
:1034FC00FB68002283F83E20FB681B6C43F0200223
:10350C00FB681A64FB68002283F83C20012307E067
:10351C00FB681B685B6903F08003802BC3D100231D
:10352C0018461037BD4680BD80B584B000AFF8603A
:10353C00B9607A6034E0F86800F09BF80346002B21
:10354C0001D0012334E0BB68B3F1FF3F28D0FEF774
:10355C00A9F802467B68D31ABA689A4202D3BB68B0
:10356C00002B1DD1FB681B685B6903F00403042B63
:10357C0016D0FB6800221A63FB68202283F83D20DA
:10358C00FB68002283F83E20FB681B6C43F0200292
:10359C00FB681A64FB68002283F83C20012307E0D7
:1035AC00FB681B685B6903F00403042BC3D1002385
:1035BC0018461037BD4680BD80B584B000AFF860AA
:1035CC00B9607A6049E0FB681B685B6903F0100323
:1035DC00102B19D1FB681B686FF010025A61FB6845
:1035EC0000221A63FB68202283F83D20FB6800222E
:1035FC0083F83E20FB681A6CFB681A64FB68002297
:10360C0083F83C20012330E0FEF74CF802467B683F
:10361C00D31ABA689A4202D3BB68002B1DD1FB683F
:10362C001B685B6903F04003402B16D0FB6800223B
:10363C001A63FB68202283F83D20FB68002283F884
:10364C003E20FB681B6C43F02002FB681A64FB688D
:10365C00002283F83C20012307E0FB681B685B69B0
:10366C0003F04003402BAED1002318461037BD4663
:10367C0080BD80B483B000AF78607B681B685B69E9
:10368C0003F48063B3F5806F1BD17B681B686FF408
:10369C0080625A617B6800221A637B68202283F85F
:1036AC003D207B68002283F83E207B681B6C43F036
:1036BC0004027B681A647B68002283F83C20012397
:1036CC0000E0002318460C37BD4680BC7047000054
:1036DC0080B586B000AF78607B68002B01D10123E8
:1036EC006CE27B681B6803F00103002B00F0878001
:1036FC00924B5B6803F00C03042B0CD08F4B5B6874
:10370C0003F00C03082B12D18C4B5B6803F4803351
:10371C00B3F5803F0BD1894B1B6803F40033002BAE
:10372C006CD07B685B68002B68D1012346E27B6818
:10373C005B68B3F5803F06D1804B1B687F4A43F42E
:10374C00803313602EE07B685B68002B0CD17B4BC5
:10375C001B687A4A23F480331360784B1B68774AD2
:10376C0023F4802313601DE07B685B68B3F5A02F06
:10377C000CD1724B1B68714A43F4802313606F4B5E
:10378C001B686E4A43F4803313600BE06B4B1B6871
:10379C006A4A23F480331360684B1B68674A23F42E
:1037AC00802313607B685B68002B13D0FDF77AFFD6
:1037BC00386108E0FDF776FF02463B69D31A642BAB
:1037CC0001D90323FAE15D4B1B6803F40033002B92
:1037DC00F0D014E0FDF766FF386108E0FDF762FFFA
:1037EC0002463B69D31A642B01D90323E6E1534B00
:1037FC001B6803F40033002BF0D100E000BF7B68A2
:10380C001B6803F00203002B63D04C4B5B6803F086
:10381C000C03002B0BD0494B5B6803F00C03082BFB
:10382C001CD1464B5B6803F48033002B16D1434B01
:10383C001B6803F00203002B05D07B681B69012B6E
:10384C0001D00123BAE13D4B1B6823F0F8027B68E1
:10385C005B69DB00394913430B603AE07B681B69F9
:10386C00002B20D0364B01221A60FDF71BFF38616C
:10387C0008E0FDF717FF02463B69D31A022B01D96A
:10388C0003239BE12D4B1B6803F00203002BF0D0AC
:10389C002A4B1B6823F0F8027B685B69DB00274925
:1038AC0013430B6015E0264B00221A60FDF7FAFE5D
:1038BC00386108E0FDF7F6FE02463B69D31A022B8D
:1038CC0001D903237AE11D4B1B6803F00203002B83
:1038DC00F0D17B681B6803F00803002B3AD07B689F
:1038EC009B69002B19D0174B01221A60FDF7DAFEE9
:1038FC00386108E0FDF7D6FE02463B69D31A022B6D
:10390C0001D903235AE10D4B5B6A03F00203002B30
:10391C00F0D0012000F0CCFA1CE00A4B00221A6017
:10392C00FDF7C0FE38610FE0FDF7BCFE02463B69B7
:10393C00D31A022B08D9032340E100BF0010024028
:10394C0000004242800442429E4B5B6A03F0020339
:10395C00002BE9D17B681B6803F00403002B00F0FB
:10396C00A6800023FB75974BDB6903F08053002B7B
:10397C000DD1944BDB69934A43F08053D361914B47
:10398C00DB6903F08053BB60BB680123FB758E4B76
:10399C001B6803F48073002B18D18B4B1B688A4A6D
:1039AC0043F480731360FDF77DFE386108E0FDF78A
:1039BC0079FE02463B69D31A642B01D90323FDE03F
:1039CC00814B1B6803F48073002BF0D07B68DB68A1
:1039DC00012B06D17B4B1B6A7A4A43F0010313621D
:1039EC002DE07B68DB68002B0CD1764B1B6A754A8B
:1039FC0023F001031362734B1B6A724A23F0040316
:103A0C0013621CE07B68DB68052B0CD16D4B1B6AC9
:103A1C006C4A43F0040313626A4B1B6A694A43F015
:103A2C00010313620BE0674B1B6A664A23F0010328
:103A3C001362644B1B6A634A23F0040313627B68B2
:103A4C00DB68002B15D0FDF72DFE38610AE0FDF781
:103A5C0029FE02463B69D31A41F28832934201D9BE
:103A6C000323ABE0574B1B6A03F00203002BEED091
:103A7C0014E0FDF717FE38610AE0FDF713FE02466D
:103A8C003B69D31A41F28832934201D9032395E062
:103A9C004C4B1B6A03F00203002BEED1FB7D012B78
:103AAC0005D1484BDB69474A23F08053D3617B68CF
:103ABC00DB69002B00F08180424B5B6803F00C0348
:103ACC00082B61D07B68DB69022B46D13F4B00226F
:103ADC001A60FDF7E7FD386108E0FDF7E3FD0246EB
:103AEC003B69D31A022B01D9032367E0354B1B68C2
:103AFC0003F00073002BF0D17B681B6AB3F5803F99
:103B0C0008D1304B5B6823F400327B689B682D49ED
:103B1C0013434B602B4B5B6823F474127B68196A5C
:103B2C007B685B6A0B43274913434B60274B01228D
:103B3C001A60FDF7B7FD386108E0FDF7B3FD0246EA
:103B4C003B69D31A022B01D9032337E01D4B1B68A9
:103B5C0003F00073002BF0D02FE01C4B00221A60F6
:103B6C00FDF7A0FD386108E0FDF79CFD02463B69BE
:103B7C00D31A022B01D9032320E0124B1B6803F04C
:103B8C000073002BF0D118E07B68DB69012B01D1AD
:103B9C00012313E00B4B5B68FB60FB6803F4803282
:103BAC007B681B6A9A4206D1FB6803F470127B682F
:103BBC005B6A9A4201D0012300E0002318461837B3
:103BCC00BD4680BD001002400070004060004242C3
:103BDC0080B584B000AF786039607B68002B01D170
:103BEC000123D0E06A4B1B6803F007033A689A4242
:103BFC0010D9674B1B6823F0070265493B681343D8
:103C0C000B60634B1B6803F007033A689A4201D0C0
:103C1C000123B8E07B681B6803F00203002B20D063
:103C2C007B681B6803F00403002B05D0594B5B68C1
:103C3C00584A43F4E06353607B681B6803F0080345
:103C4C00002B05D0534B5B68524A43F460535360CE
:103C5C00504B5B6823F0F0027B689B684D49134323
:103C6C004B607B681B6803F00103002B40D07B6822
:103C7C005B68012B07D1474B1B6803F40033002B07
:103C8C0015D101237FE07B685B68022B07D1414B88
:103C9C001B6803F00073002B09D1012373E03D4B2B
:103CAC001B6803F00203002B01D101236BE0394B9D
:103CBC005B6823F003027B685B68364913434B60F7
:103CCC00FDF7F0FCF8600AE0FDF7ECFC0246FB683F
:103CDC00D31A41F28832934201D9032353E02D4B7E
:103CEC005B6803F00C027B685B689B009A42EBD12B
:103CFC00274B1B6803F007033A689A4210D2244BF7
:103D0C001B6823F0070222493B6813430B60204BCE
:103D1C001B6803F007033A689A4201D0012332E092
:103D2C007B681B6803F00403002B08D0194B5B68FD
:103D3C0023F4E0627B68DB68164913434B607B68B5
:103D4C001B6803F00803002B09D0124B5B6823F4AB
:103D5C0060527B681B69DB000E4913434B6000F01B
:103D6C0021F802460B4B5B681B0903F00F030A4951
:103D7C00CB5C22FA03F3094A1360094B1B68184603
:103D8C00FDF74EFC002318461037BD4680BD00BF22
:103D9C000020024000100240D871000800000020F2
:103DAC000400002080B487B000AF0023FB60002328
:103DBC00BB6000237B6100237B6000233B611E4BB7
:103DCC005B68FB60FB6803F00C03042B02D0082B30
:103DDC0003D027E0194B3B6127E0FB689B0C03F0F9
:103DEC000F03174AD35C7B60FB6803F48033002B12
:103DFC0010D0114B5B685B0C03F00103114AD35CD0
:103E0C00BB607B680D4A02FB03F2BB68B2FBF3F3A9
:103E1C007B6104E07B680C4A02FB03F37B617B69EA
:103E2C003B6102E0054B3B6100BF3B6918461C3708
:103E3C00BD4680BC704700BF0010024000127A00E3
:103E4C00F07100080072000800093D0080B400AF5A
:103E5C00024B1B681846BD4680BC70470000002012
:103E6C0080B500AFFFF7F2FF0246054B5B681B0AFB
:103E7C0003F007030349CB5C22FA03F3184680BD19
:103E8C0000100240E871000880B500AFFFF7DEFFBC
:103E9C000246054B5B68DB0A03F007030349CB5C66
:103EAC0022FA03F3184680BD00100240E8710008A6
:103EBC0080B485B000AF78600A4B1B680A4AA2FB3D
:103ECC0003235B0A7A6802FB03F3FB6000BFFB6809
:103EDC005A1EFA60002BF9D100BF00BF1437BD4643
:103EEC0080BC704700000020D34D621080B586B0B6
:103EFC0000AF786000233B610023FB607B681B688C
:103F0C0003F00103002B7DD00023FB754F4BDB69C5
:103F1C0003F08053002B0DD14C4BDB694B4A43F023
:103F2C008053D361494BDB6903F08053BB60BB68A2
:103F3C000123FB75464B1B6803F48073002B18D1CF
:103F4C00434B1B68424A43F480731360FDF7AAFB92
:103F5C00386108E0FDF7A6FB02463B69D31A642BD7
:103F6C0001D903236DE03A4B1B6803F48073002BDB
:103F7C00F0D0364B1B6A03F44073FB60FB68002BDC
:103F8C002ED07B685B6803F44073FA689A4227D0A2
:103F9C002E4B1B6A23F44073FB602E4B01221A60DC
:103FAC002C4B00221A60294AFB681362FB6803F051
:103FBC000103002B14D0FDF775FB38610AE0FDF707
:103FCC0071FB02463B69D31A41F28832934201D904
:103FDC00032336E01D4B1B6A03F00203002BEED0CB
:103FEC001A4B1B6A23F440727B685B6817491343B6
:103FFC000B62FB7D012B05D1144BDB69134A23F0BB
:10400C008053D3617B681B6803F00203002B08D03C
:10401C000E4B5B6823F440427B689B680B4913434F
:10402C004B607B681B6803F01003002B08D0074B18
:10403C005B6823F480027B68DB68044913434B60A4
:10404C00002318461837BD4680BD00BF0010024043
:10405C00007000404004424280B588B000AF7860E8
:10406C0000237B610023FB6100233B610023FB6089
:10407C000023BB617B68102B0AD07B68102B00F2ED
:10408C008A807B68012B45D07B68022B75D082E03F
:10409C00464B5B68FB60454B1B6803F08073002B41
:1040AC007BD0FB689B0C03F00F03414AD35C3B6154
:1040BC00FB6803F48033002B15D03C4B5B685B0C26
:1040CC0003F001033B4AD35C7B61FB6803F4803350
:1040DC00002B0DD0384A7B69B2FBF3F23B6902FB33
:1040EC0003F3FB6104E03B69344A02FB03F3FB611D
:1040FC002E4B5B6803F48003B3F5800F02D1FB6990
:10410C00BB614AE0FB695B002D4AA2FB03235B0801
:10411C00BB6142E0254B1B6AFB60FB6803F44073F8
:10412C00B3F5807F08D1FB6803F00203002B03D0AA
:10413C004FF40043BB611FE0FB6803F44073B3F51D
:10414C00007F09D1194B5B6A03F00203002B03D0EB
:10415C0049F64043BB610FE0FB6803F44073B3F5D1
:10416C00407F1CD1114B1B6803F40033002B16D07D
:10417C004FF22443BB6112E011E0FFF785FE0246CB
:10418C000A4B5B689B0B03F0030301335B00B2FB30
:10419C00F3F3BB6104E000BF02E000BF00E000BF2E
:1041AC00BB6918462037BD4680BD00BF00100240D9
:1041BC00047200081472000800127A0000093D0015
:1041CC00ABAAAAAA80B582B000AF78607B68002B3E
:1041DC0001D1012376E07B685B6A002B08D17B68F8
:1041EC005B68B3F5827F09D07B680022DA6105E059
:1041FC007B6800221A617B6800225A617B6800226E
:10420C009A627B6893F85130DBB2002B06D17B6845
:10421C00002283F850207868FDF796F87B6802221C
:10422C0083F851207B681B681A687B681B6822F036
:10423C0040021A607B685B6803F482727B689B683F
:10424C0003F404431A437B68DB6803F400631A43EA
:10425C007B681B6903F002031A437B685B6903F0FC
:10426C0001031A437B689B6903F400731A437B6850
:10427C00DB6903F038031A437B681B6A03F0800385
:10428C0042EA03017B689B6A03F400527B681B685B
:10429C000A431A607B689B691A0C7B681B6802F0E6
:1042AC0004025A607B681B68DA697B681B6822F41D
:1042BC000062DA617B6800225A657B68012283F810
:1042CC005120002318460837BD4680BD80B588B004
:1042DC0000AFF860B9603B601346FB80FDF7E2F974
:1042EC00F861FB887B83FB6893F85130DBB2012BC0
:1042FC0001D002232AE1BB68002B02D0FB88002BE3
:10430C0001D1012322E1FB6893F85030012B01D13C
:10431C0002231BE1FB68012283F85020FB68032277
:10432C0083F85120FB6800225A65FB68BA681A634F
:10433C00FB68FA889A86FB68FA88DA86FB680022A2
:10434C009A63FB6800229A87FB680022DA87FB6875
:10435C0000225A64FB6800221A64FB689B68B3F560
:10436C00004F0FD1FB681B681A68FB681B6822F0B2
:10437C0040021A60FB681B681A68FB681B6842F4F1
:10438C0080421A60FB681B681B6803F04003402BDB
:10439C0007D0FB681B681A68FB681B6842F0400278
:1043AC001A60FB68DB68B3F5006F52D1FB685B6881
:1043BC00002B02D07B8B012B45D1FB681B6B1A8821
:1043CC00FB681B68DA60FB681B6B9A1CFB681A6342
:1043DC00FB68DB8E9BB2013B9AB2FB68DA8632E05B
:1043EC00FB681B689B6803F00203022B12D1FB686D
:1043FC001B6B1A88FB681B68DA60FB681B6B9A1CCA
:10440C00FB681A63FB68DB8E9BB2013B9AB2FB68BC
:10441C00DA8618E0FDF746F90246FB69D31A3A68CA
:10442C009A4203D83B68B3F1FF3F02D13B68002BA3
:10443C0009D1FB68012283F85120FB68002283F824
:10444C005020032382E0FB68DB8E9BB2002BC7D18C
:10445C0053E0FB685B68002B02D07B8B012B47D1B0
:10446C00FB681A6BFB681B680C3312781A70FB68BC
:10447C001B6B5A1CFB681A63FB68DB8E9BB2013BFF
:10448C009AB2FB68DA8633E0FB681B689B6803F022
:10449C000203022B13D1FB681A6BFB681B680C33ED
:1044AC0012781A70FB681B6B5A1CFB681A63FB684A
:1044BC00DB8E9BB2013B9AB2FB68DA8618E0FDF703
:1044CC00F1F80246FB69D31A3A689A4203D83B6862
:1044DC00B3F1FF3F02D13B68002B09D1FB680122ED
:1044EC0083F85120FB68002283F8502003232DE031
:1044FC00FB68DB8E9BB2002BC6D1FA693968F86871
:10450C0000F0B0F80346002B02D0FB6820225A655D
:10451C00FB689B68002B0AD100237B61FB681B683E
:10452C00DB687B61FB681B689B687B617B69FB6854
:10453C00012283F85120FB68002283F85020FB688D
:10454C005B6D002B01D0012300E0002318462037BF
:10455C00BD4680BD80B588B000AFF860B9603B60E7
:10456C001346FB71FDF79EF80246BB6A9B1A3A682C
:10457C001344FB61FDF796F8B861394B1B685B017E
:10458C001B0DFA6902FB03F37B6154E03B68B3F14A
:10459C00FF3F50D0FDF786F80246BB69D31AFA6983
:1045AC009A4202D9FB69002B3DD1FB681B685A6803
:1045BC00FB681B6822F0E0025A60FB685B68B3F58D
:1045CC00827F11D1FB689B68B3F5004F04D0FB6868
:1045DC009B68B3F5806F07D1FB681B681A68FB6892
:1045EC001B6822F040021A60FB689B6AB3F5005FFF
:1045FC000FD1FB681B681A68FB681B6822F4005219
:10460C001A60FB681B681A68FB681B6842F400524E
:10461C001A60FB68012283F85120FB68002283F8A2
:10462C005020032317E07B69002B01D10023FB6191
:10463C007B69013B7B61FB681B689A68BB68134014
:10464C00BA689A420CBF01230023DBB21A46FB79ED
:10465C009A429BD1002318462037BD4680BD00BF2F
:10466C000000002080B586B002AFF860B9607A60B7
:10467C007B680093BB6801220221F868FFF76AFF90
:10468C000346002B07D0FB685B6D43F02002FB68F0
:10469C005A65032313E07B680093BB6800228021DA
:1046AC00F868FFF757FF0346002B07D0FB685B6DDC
:1046BC0043F02002FB685A65032300E000231846F0
:1046CC001037BD4680BD80B582B000AF78607B6886
:1046DC00002B01D1012341E07B6893F83D30DBB224
:1046EC00002B06D17B68002283F83C207868FCF70D
:1046FC0069FE7B68022283F83D207B681A687B6820
:10470C0004331946104600F089FA7B68012283F8BD
:10471C0046207B68012283F83E207B68012283F8C7
:10472C003F207B68012283F840207B68012283F8BC
:10473C0041207B68012283F842207B68012283F8A8
:10474C0043207B68012283F844207B68012283F894
:10475C0045207B68012283F83D200023184608374A
:10476C00BD4680BD80B485B000AF78607B6893F89F
:10477C003D30DBB2012B01D001233AE07B680222F1
:10478C0083F83D207B681B68DA687B681B6842F005
:10479C000102DA607B681B68184A93420ED07B6872
:1047AC001B68B3F1804F09D07B681B68144A934295
:1047BC0004D07B681B68134A934211D17B681B6839
:1047CC009B6803F00703FB60FB68062B10D07B682B
:1047DC001B681A687B681B6842F001021A6007E0CC
:1047EC007B681B681A687B681B6842F001021A60C0
:1047FC00002318461437BD4680BC7047002C01407E
:10480C00000400400008004080B483B000AF786022
:10481C007B681B68DA687B681B6822F00102DA602F
:10482C007B681B681A6A41F211131340002B0FD1DD
:10483C007B681B681A6A40F244431340002B07D173
:10484C007B681B681A687B681B6822F001021A607F
:10485C007B68012283F83D20002318460C37BD46A7
:10486C0080BC704780B584B000AF78607B681B68F3
:10487C00DB68FB607B681B681B69BB60BB6803F073
:10488C000203002B20D0FB6803F00203002B1BD08B
:10489C007B681B686FF002021A617B6801221A7731
:1048AC007B681B689B6903F00303002B03D07868BB
:1048BC0000F098F905E0786800F08BF9786800F062
:1048CC009AF97B6800221A77BB6803F00403002B6B
:1048DC0020D0FB6803F00403002B1BD07B681B6803
:1048EC006FF004021A617B6802221A777B681B68DE
:1048FC009B6903F44073002B03D0786800F072F9C5
:10490C0005E0786800F065F9786800F074F97B6868
:10491C0000221A77BB6803F00803002B20D0FB6839
:10492C0003F00803002B1BD07B681B686FF0080298
:10493C001A617B6804221A777B681B68DB6903F0B9
:10494C000303002B03D0786800F04CF905E078687D
:10495C0000F03FF9786800F04EF97B6800221A7776
:10496C00BB6803F01003002B20D0FB6803F010038E
:10497C00002B1BD07B681B686FF010021A617B68E0
:10498C0008221A777B681B68DB6903F44073002BE1
:10499C0003D0786800F026F905E0786800F019F982
:1049AC00786800F028F97B6800221A77BB6803F05E
:1049BC000103002B0CD0FB6803F00103002B07D084
:1049CC007B681B686FF001021A617868FCF710F8BD
:1049DC00BB6803F08003002B0CD0FB6803F0800352
:1049EC00002B07D07B681B686FF080021A61786817
:1049FC0000F07FFABB6803F04003002B0CD0FB687F
:104A0C0003F04003002B07D07B681B686FF040025B
:104A1C001A61786800F0F8F8BB6803F02003002BEB
:104A2C000CD0FB6803F02003002B07D07B681B68BD
:104A3C006FF020021A61786800F052FA00BF10374C
:104A4C00BD4680BD80B584B000AF7860396000236E
:104A5C00FB737B6893F83C30012B01D10223B4E04B
:104A6C007B68012283F83C207B68022283F83D207E
:104A7C007B681B689B68BB60BB6823F07703BB60DB
:104A8C00BB6823F47F43BB607B681B68BA689A6081
:104A9C003B681B68B3F5005F3ED0B3F5005F00F2D6
:104AAC008780B3F5805F00F08680B3F5805F7FD898
:104ABC00702B1AD0702B7BD8602B50D0602B77D8F2
:104ACC00502B3CD0502B73D8402B58D0402B6FD848
:104ADC00302B64D0302B6BD8202B60D0202B67D898
:104AEC00002B5CD0102B5AD062E07B6818683B68B6
:104AFC0099683B685A683B68DB6800F074F97B681E
:104B0C001B689B68BB60BB6843F07703BB607B682A
:104B1C001B68BA689A604FE07B6818683B689968B4
:104B2C003B685A683B68DB6800F05DF97B681B6882
:104B3C009A687B681B6842F480429A603CE07B6810
:104B4C0018683B6859683B68DB681A4600F0D4F873
:104B5C007B681B685021184600F02BF92CE07B6811
:104B6C0018683B6859683B68DB681A4600F0F2F835
:104B7C007B681B686021184600F01BF91CE07B6801
:104B8C0018683B6859683B68DB681A4600F0B4F853
:104B9C007B681B684021184600F00BF90CE07B6821
:104BAC001A683B681B681946104600F002F903E0CE
:104BBC000123FB7300E000BF7B68012283F83D20DA
:104BCC007B68002283F83C20FB7B18461037BD46DF
:104BDC0080BD80B483B000AF786000BF0C37BD4699
:104BEC0080BC704780B483B000AF786000BF0C37D6
:104BFC00BD4680BC704780B483B000AF786000BF06
:104C0C000C37BD4680BC704780B483B000AF786071
:104C1C0000BF0C37BD4680BC7047000080B485B027
:104C2C0000AF786039607B681B68FB607B682F4A3B
:104C3C0093420BD07B68B3F1804F07D07B682C4A32
:104C4C00934203D07B682B4A934208D1FB6823F034
:104C5C007003FB603B685B68FA681343FB607B681E
:104C6C00224A93420BD07B68B3F1804F07D07B680C
:104C7C001F4A934203D07B681E4A934208D1FB68BB
:104C8C0023F44073FB603B68DB68FA681343FB60FA
:104C9C00FB6823F080023B685B691343FB607B6815
:104CAC00FA681A603B689A687B68DA623B681A6833
:104CBC007B689A627B680D4A934203D13B681A6900
:104CCC007B681A637B6801225A617B681B6903F05D
:104CDC000103002B05D07B681B6923F001027B6864
:104CEC001A6100BF1437BD4680BC7047002C0140D0
:104CFC00000400400008004080B487B000AFF860AA
:104D0C00B9607A60FB681B6A7B61FB681B6A23F0E5
:104D1C000102FB681A62FB689B693B613B6923F0EB
:104D2C00F0033B617B681B013A6913433B617B6970
:104D3C0023F00A037B617A69BB6813437B61FB68D0
:104D4C003A699A61FB687A691A6200BF1C37BD46E2
:104D5C0080BC704780B487B000AFF860B9607A60EF
:104D6C00FB681B6A7B61FB681B6A23F01002FB6803
:104D7C001A62FB689B693B613B6923F470433B619E
:104D8C007B681B033A6913433B617B6923F0A003E7
:104D9C007B61BB681B017A6913437B61FB683A69D1
:104DAC009A61FB687A691A6200BF1C37BD4680BCE9
:104DBC00704780B485B000AF786039607B689B68C1
:104DCC00FB60FB6823F07003FB603A68FB681343DD
:104DDC0043F00703FB607B68FA689A6000BF1437E6
:104DEC00BD4680BC704780B487B000AFF860B96036
:104DFC007A603B60FB689B687B617B6923F47F4333
:104E0C007B613B681A027B681A43BB6813437A695F
:104E1C0013437B61FB687A699A6000BF1C37BD46FF
:104E2C0080BC704780B485B000AF786039607B6817
:104E3C0093F83C30012B01D1022346E07B68012220
:104E4C0083F83C207B68022283F83D207B681B683A
:104E5C005B68FB607B681B689B68BB60FB6823F02E
:104E6C007003FB603B681B68FA681343FB607B684C
:104E7C001B68FA685A607B681B68164A93420ED00E
:104E8C007B681B68B3F1804F09D07B681B68124AA2
:104E9C00934204D07B681B68104A93420CD1BB68C8
:104EAC0023F08003BB603B685B68BA681343BB604C
:104EBC007B681B68BA689A607B68012283F83D2086
:104ECC007B68002283F83C20002318461437BD462B
:104EDC0080BC7047002C01400004004000080040DA
:104EEC0080B483B000AF786000BF0C37BD4680BC87
:104EFC00704780B483B000AF786000BF0C37BD46FC
:104F0C0080BC704780B582B000AF78607B68002BA6
:104F1C0001D1012342E07B6893F84130DBB2002BD6
:104F2C0006D17B68002283F840207868FCF770FA81
:104F3C007B68242283F841207B681B68DA687B68D5
:104F4C001B6822F40052DA60786800F0B7FD7B68C9
:104F5C001B681A697B681B6822F490421A617B6893
:104F6C001B685A697B681B6822F02A025A617B68AD
:104F7C001B68DA687B681B6842F40052DA607B6855
:104F8C0000225A647B68202283F841207B6820220F
:104F9C0083F842207B6800225A63002318460837A6
:104FAC00BD4680BD80B58AB002AFF860B9603B6089
:104FBC001346FB8000237B61FB6893F84130DBB226
:104FCC00202B75D1BB68002B02D0FB88002B01D1A4
:104FDC0001236EE0FB6800225A64FB68212283F8EF
:104FEC004120FCF75FFB7861FB68FA889A84FB68C8
:104FFC00FA88DA84FB689B68B3F5805F08D1FB689C
:10500C001B69002B04D10023FB61BB68BB6103E06F
:10501C00BB68FB610023BB612EE03B6800937B699E
:10502C0000228021F86800F01CFB0346002B05D001
:10503C00FB68202283F8412003233AE0FB69002B14
:10504C000BD1BB691B881A46FB681B68C2F30802AC
:10505C005A60BB690233BB6107E0FB691A78FB68D5
:10506C001B685A60FB690133FB61FB68DB8C9BB2EC
:10507C00013B9AB2FB68DA84FB68DB8C9BB2002B99
:10508C00CBD13B6800937B6900224021F86800F08B
:10509C00E8FA0346002B05D0FB68202283F8412058
:1050AC00032306E0FB68202283F84120002300E064
:1050BC00022318462037BD4680BD80B584B000AFB2
:1050CC00F860B9601346FB80FB6893F84230DBB2A2
:1050DC00202B12D1BB68002B02D0FB88002B01D1F6
:1050EC0001230BE0FB6800221A63FB881A46B9689F
:1050FC00F86800F00FFB034600E002231846103757
:10510C00BD4680BD80B5BAB000AF78607B681B68C7
:10511C001B68C7F8E4307B681B68DB68C7F8E030B5
:10512C007B681B685B69C7F8DC300023C7F8D83094
:10513C000023C7F8D430D7F8E43003F00F03C7F8D6
:10514C00D830D7F8D830002B0FD1D7F8E43003F093
:10515C002003002B09D0D7F8E03003F02003002BFC
:10516C0003D0786800F0ECFB5BE2D7F8D830002B6A
:10517C0000F0DE80D7F8DC3003F00103002B06D101
:10518C00D7F8E03003F49073002B00F0D180D7F8FF
:10519C00E43003F00103002B0BD0D7F8E03003F41C
:1051AC008073002B05D07B685B6C43F001027B683D
:1051BC005A64D7F8E43003F00403002B0BD0D7F873
:1051CC00DC3003F00103002B05D07B685B6C43F0F3
:1051DC0002027B685A64D7F8E43003F00203002B18
:1051EC000BD0D7F8DC3003F00103002B05D07B6823
:1051FC005B6C43F004027B685A64D7F8E43003F02C
:10520C000803002B11D0D7F8E03003F02003002B5B
:10521C0005D1D7F8DC3003F00103002B05D07B68F7
:10522C005B6C43F008027B685A647B685B6C002BF8
:10523C0000F0F281D7F8E43003F02003002B08D003
:10524C00D7F8E03003F02003002B02D0786800F090
:10525C0077FB7B681B685B6903F04003002B14BF72
:10526C0001230023DBB2C7F8D4307B685B6C03F0FE
:10527C000803002B03D1D7F8D430002B4FD078681B
:10528C0000F081FA7B681B685B6903F04003002B1C
:10529C0041D07B681B681433C7F89C30D7F89C301E
:1052AC0053E8003FC7F89830D7F8983023F0400304
:1052BC00C7F8D0307B681B681433D7F8D020C7F8F8
:1052CC00A820C7F8A430D7F8A410D7F8A82041E834
:1052DC000023C7F8A030D7F8A030002BD9D17B68B9
:1052EC00DB6B002B13D07B68DB6B7E4A5A637B68CD
:1052FC00DB6B1846FCF7A4FF0346002B16D07B682B
:10530C00DB6B5B6B7A68D26B104698470EE0786863
:10531C0000F093F90AE0786800F08FF906E07868FD
:10532C0000F08BF97B6800225A6475E100BF73E1D1
:10533C007B681B6B012B40F04F81D7F8E43003F0F6
:10534C001003002B00F04881D7F8E03003F0100375
:10535C00002B00F041810023BB607B681B681B683D
:10536C00BB607B681B685B68BB60BB687B681B6849
:10537C005B6903F04003002B00F0B6807B68DB6BAD
:10538C001B685B68A7F8BE30B7F8BE30002B00F086
:10539C0045817B689B8DB7F8BE209A4280F03E8198
:1053AC007B68B7F8BE20DA857B68DB6B9B69202BAA
:1053BC0000F088807B681B680C33C7F88830D7F8FE
:1053CC00883053E8003FC7F88430D7F8843023F492
:1053DC008073C7F8B8307B681B680C33D7F8B820DB
:1053EC00C7F89420C7F89030D7F89010D7F89420CD
:1053FC0041E80023C7F88C30D7F88C30002BD9D17A
:10540C007B681B6814337B677B6F53E8003F3B67FB
:10541C003B6F23F00103C7F8B4307B681B6814336F
:10542C00D7F8B420C7F88020FB67F96FD7F8802035
:10543C0041E80023BB67BB6F002BE1D17B681B6885
:10544C0014333B663B6E53E8003FFB65FB6D23F06A
:10545C004003C7F8B0307B681B681433D7F8B02012
:10546C00FA66BB66B96EFA6E41E800237B667B6E0A
:10547C00002BE3D17B68202283F842207B6800223A
:10548C001A637B681B680C33FB64FB6C53E8003FAE
:10549C00BB64BB6C23F01003C7F8AC307B681B6893
:1054AC000C33D7F8AC20BA657B65796DBA6D41E8E1
:1054BC0000233B653B6D002BE3D17B68DB6B18460F
:1054CC00FCF783FE7B6802225A637B689A8D7B68AB
:1054DC00DB8D9BB2D31A9BB21946786800F0B6F8F4
:1054EC009CE000BF575800087B689A8D7B68DB8D69
:1054FC009BB2D31AA7F8CE307B68DB8D9BB2002B06
:10550C0000F08E80B7F8CE30002B00F089807B68DD
:10551C001B680C33BB63BB6B53E8003F7B637B6B3B
:10552C0023F49073C7F8C8307B681B680C33D7F82A
:10553C00C8207A643B64396C7A6C41E80023FB63C5
:10554C00FB6B002BE3D17B681B6814337B627B6A9B
:10555C0053E8003F3B623B6A23F00103C7F8C430B9
:10556C007B681B681433D7F8C4203A63FB62F96A72
:10557C003A6B41E80023BB62BB6A002BE3D17B682A
:10558C00202283F842207B6800221A637B681B6808
:10559C000C333B613B6953E8003FFB60FB6823F035
:1055AC001003C7F8C0307B681B680C33D7F8C020D9
:1055BC00FA61BB61B969FA6941E800237B617B69D7
:1055CC00002BE3D17B6802225A63B7F8CE30194620
:1055DC00786800F03BF823E0D7F8E43003F0800360
:1055EC00002B09D0D7F8E03003F08003002B03D058
:1055FC00786800F03EF914E0D7F8E43003F040038B
:10560C00002B0ED0D7F8E03003F04003002B08D06D
:10561C00786800F07DF904E000BF02E000BF00E014
:10562C0000BFE837BD4680BD80B483B000AF786062
:10563C0000BF0C37BD4680BC704780B483B000AF50
:10564C00786000BF0C37BD4680BC704780B483B017
:10565C0000AF78600B467B8000BF0C37BD4680BC2A
:10566C00704780B586B000AFF860B9603B601346F8
:10567C00FB713BE03B6AB3F1FF3F37D0FCF712F80C
:10568C0002463B68D31A3A6A9A4202D33B6A002B11
:10569C0001D103233AE0FB681B68DB6803F00403C9
:1056AC00002B23D0BB68802B20D0BB68402B1DD097
:1056BC00FB681B681B6803F00803082B16D100233A
:1056CC007B61FB681B681B687B61FB681B685B6804
:1056DC007B617B69F86800F056F8FB6808225A6415
:1056EC00FB68002283F8402001230FE0FB681B6855
:1056FC001A68BB681340BA689A420CBF0123002396
:10570C00DBB21A46FB799A42B4D0002318461837FC
:10571C00BD4680BD80B485B000AFF860B96013465B
:10572C00FB80FB68BA689A62FB68FA889A85FB680A
:10573C00FA88DA85FB6800225A64FB68222283F817
:10574C004220FB681B69002B07D0FB681B68DA68DA
:10575C00FB681B6842F48072DA60FB681B685A694C
:10576C00FB681B6842F001025A61FB681B68DA682F
:10577C00FB681B6842F02002DA60002318461437DD
:10578C00BD4680BC704780B495B000AF78607B6834
:10579C001B680C337B637B6B53E8003F3B633B6BB9
:1057AC0023F49073FB647B681B680C33FA6C3A64CB
:1057BC00FB63F96B3A6C41E80023BB63BB6B002BBA
:1057CC00E5D17B681B6814333B623B6A53E8003FAE
:1057DC00FB61FB6923F00103BB647B681B6814331A
:1057EC00BA6CFA62BB62B96AFA6A41E800237B625E
:1057FC007B6A002BE5D17B681B6B012B19D17B6875
:10580C001B680C33FB60FB6853E8003FBB60BB6854
:10581C0023F010037B647B681B680C337A6CBA61D1
:10582C007B617969BA6941E800233B613B69002BD4
:10583C00E5D17B68202283F842207B6800221A6322
:10584C0000BF5437BD4680BC704780B584B000AFF4
:10585C0078607B685B6AFB60FB680022DA85FB681A
:10586C000022DA84F868FFF7E8FE00BF1037BD4667
:10587C0080BD80B485B000AF78607B6893F8413010
:10588C00DBB2212B3ED17B689B68B3F5805F14D1D2
:10589C007B681B69002B10D17B681B6AFB60FB6863
:1058AC001B881A467B681B68C2F308025A607B6827
:1058BC001B6A9A1C7B681A6208E07B681B6A591C7D
:1058CC007A6811621A787B681B685A607B68DB8C7B
:1058DC009BB2013B9BB27A681946D184002B0FD145
:1058EC007B681B68DA687B681B6822F08002DA60D0
:1058FC007B681B68DA687B681B6842F04002DA60E0
:10590C00002300E0022318461437BD4680BC7047C4
:10591C0080B582B000AF78607B681B68DA687B6802
:10592C001B6822F04002DA607B68202283F8412059
:10593C007868FFF779FE002318460837BD4680BD0E
:10594C0080B58CB000AF78607B6893F84230DBB2E6
:10595C00222B40F0AE807B689B68B3F5805F17D13B
:10596C007B681B69002B13D10023FB627B689B6A4D
:10597C00BB627B681B685B689BB2C3F308039AB27B
:10598C00BB6A1A807B689B6A9A1C7B689A6226E0C9
:10599C007B689B6AFB620023BB627B689B68B3F5E8
:1059AC00805F07D07B689B68002B0AD17B681B69E2
:1059BC00002B06D17B681B685B68DAB2FB6A1A7035
:1059CC0008E07B681B685B68DBB203F07F03DAB22C
:1059DC00FB6A1A707B689B6A5A1C7B689A627B68AC
:1059EC00DB8D9BB2013B9BB27A681946D185002BAB
:1059FC005DD17B681B68DA687B681B6822F020022B
:105A0C00DA607B681B68DA687B681B6822F480723A
:105A1C00DA607B681B685A697B681B6822F001029C
:105A2C005A617B68202283F842207B6800225A63EB
:105A3C007B681B6B012B35D17B6800221A637B685A
:105A4C001B680C337B617B6953E8003F3B613B690E
:105A5C0023F010037B627B681B680C337A6A3A6212
:105A6C00FB61F9693A6A41E80023BB61BB69002B11
:105A7C00E5D17B681B681B6803F01003102B0AD15F
:105A8C000023FB607B681B681B68FB607B681B68E2
:105A9C005B68FB60FB687B689B8D19467868FFF739
:105AAC00D5FD02E07868FAF735FF002302E0002309
:105ABC0000E0022318463037BD4680BD80B584B067
:105ACC0000AF78607B681B681B6923F440517B68CE
